:020000040800F2
:1000000078470020650200086D0200086F020008B2
:100010007102000873020008750200080000000069
:10002000000000000000000000000000CD010008FA
:1000300079020008000000001102000869070008AA
:100040007F0200087F0200087F0200087F0200088C
:100050007F0200087F0200087F0200087F0200087C
:100060007F0200087F0200087F0200087F0200086C
:100070007F0200087F0200087F0200087F0200085C
:100080007F0200087F0200087F0200087F0200084C
:100090007F0200087F0200087F0200087F0200083C
:1000A0007F0200087F0200087F0200087F0200082C
:1000B0007F0200087F0200087F0200087F0200081C
:1000C0007F0200087F0200087F0200087F0200080C
:1000D0007F0200087F0200087F0200087F020008FC
:1000E0007F0200087F0200087F0200087F020008EC
:1000F0007F0200087F0200087F0200087F020008DC
:100100007F0200087F0200087F0200087F020008CB
:100110007F0200087F0200087F0200087F020008BB
:100120007F0200087F0200087F0200087F020008AB
:1001300000F002F800F03AF80AA090E8000C8244BF
:100140008344AAF10107DA4501D100F02FF8AFF29C
:10015000090EBAE80F0013F0010F18BFFB1A43F0A5
:10016000010318476810000088100000103A24BFEF
:1001700078C878C1FAD8520724BF30C830C144BF0C
:1001800004680C607047000000230024002500264E
:10019000103A28BF78C1FBD8520728BF30C148BFEA
:1001A0000B6070471FB51FBD10B510BD00F07DF886
:1001B0001146FFF7F7FF00F021FB00F09BF803B4B6
:1001C000FFF7F2FF03BC00F0A3F80000224B196810
:1001D0000868B0E8F00F80F30988BFF36F8F4FF025
:1001E000000080F311884EF00D0E704700000000F3
:1001F00006480068006880F3088862B661B6BFF3FD
:100200004F8FBFF36F8F00DF00BF00BF08ED00E02E
:10021000EFF30980BFF36F8F0F4B1A6820E9F00FDF
:10022000106008B54FF0BF0080F31188BFF34F8F07
:10023000BFF36F8F00F04EFE4FF0000080F3118887
:10024000BDE8084019680868B0E8F00F80F3098835
:10025000BFF36F8F704700BF08000020EFF30580E9
:10026000704700000948804709480047FEE7FEE75D
:10027000FEE7FEE7FEE7FEE7FEE7FEE7FEE7FEE756
:1002800004480549054A064B704700009D070008D1
:100290003101000878410020784700207843002091
:1002A00078430020704770477047754600F02CF87F
:1002B000AE4605006946534620F00700854618B053
:1002C00020B5FFF7DDFFBDE820404FF000064FF0FE
:1002D00000074FF000084FF0000B21F00701AC467B
:1002E000ACE8C009ACE8C009ACE8C009ACE8C0099A
:1002F0008D46704710B50446AFF300802046BDE838
:100300001040FFF75CBF0000004870471441002018
:1003100001491820ABBEFEE726000200704700002E
:100320005B48806940F0100059498861084680693F
:1003300040F0080088615748006820F00C005549DB
:1003400008600846006840F0080008600846006839
:1003500020F0030008604F480830006820F48070E7
:100360004C49083108604B48006820F0C0004949FA
:1003700008600846006840F0800008600846006891
:1003800020F03000086043480830006820F4007016
:100390004049083108603F48006820F440203D494A
:1003A00008600846006840F40020086008460068BD
:1003B00020F44030086037480830006820F480504E
:1003C0003449083108603348001F006820F44000B9
:1003D0003049091F08600846006840F400000860C2
:1003E0000846006820F4401008602A480830006879
:1003F00020F020002749083108602648001F0068C7
:1004000020F040602349091F08600846006840F05A
:10041000006008600846006820F0407008601D48D1
:100420000830006820F040001A4908310860194877
:10043000006820F44020174908600846006820F44E
:10044000402008600846006840F440300860081FFB
:10045000006820F04040091F08600846006820F04E
:10046000404008600846006840F0405008600A4874
:10047000406820F44000084948600846406840F45D
:10048000801048600846006940F4005008617047D9
:1004900000100240040C01400010014048488069EF
:1004A00040F00400464988610846806940F0010038
:1004B00088610846C06940F00100C8614148006891
:1004C00020F0C0003F4908600846006840F0800006
:1004D00008600846006820F03000086008460068A0
:1004E00040F0300008600846006820F00C0008600A
:1004F0000846006840F0080008600846006820F0E0
:10050000030008600846006840F0030008600846E1
:10051000006820F4406008600846006840F400600D
:1005200008600846006820F44070086008460068CB
:1005300040F4407008604720C904088544F62060F4
:10054000888540F2DC5008874FF4FA6088868887F7
:100550008006008B40F4C04008830846008C40F0C1
:10056000100008840846008C20F02000088408460B
:10057000008B40F0600008830846008C40F00100CA
:1005800008840846008C20F0020008840846808B0E
:1005900040F0600088830846008C40F48070088436
:1005A0000846008C20F4007008840846008820F07B
:1005B000100008800846008840F00100088070475D
:1005C00000100240000801402B48006840F48030D1
:1005D0002949086000BF2848006800F4003000285E
:1005E000F9D0132025490860234840682249486013
:1005F0000846406840F480604860084640684860AB
:100600000846406820F4701048600846406820F4AE
:10061000803048600846406820F400304860084652
:10062000406840F4803048600846406848600846AA
:10063000406840F4E01048600846006840F0807070
:10064000086000BF0C48006800F000700028F9D076
:100650000948406820F003000749486008464068A0
:1006600040F00200486000BF0348406800F00C0002
:100670000828F9D170470000001002400020024015
:1006800010B500F001F810BD0CB5002001900090ED
:100690003348006840F480303149086000BF30487A
:1006A000006800F4003000900198401C0190009810
:1006B00018B90198B0F5A06FF1D12948006800F48D
:1006C000003010B10120009001E00020009000985F
:1006D000012843D12348006840F0100021490860F8
:1006E0000846006820F0030008600846006840F0F3
:1006F000020008601A484068194948600846406886
:1007000048600846406840F4806048600846406899
:1007100020F47C1048600846406840F4E8104860C7
:100720000846006840F08070086000BF0C48006810
:1007300000F000700028F9D00948406820F003005C
:10074000074948600846406840F00200486000BF22
:100750000348406800F00C000828F9D10CBD0000E7
:10076000001002400020024010B500BFBF2080F3FF
:100770001188BFF34F8FBFF36F8F00BF00F024FCD1
:1007800018B14FF080500449086000BF002080F38A
:10079000118800BF10BD000004ED00E010B5134843
:1007A000006840F00100114908600846406810499F
:1007B00008400E494860084600680E4908400B4949
:1007C00008600846006820F48020086008464068F9
:1007D00020F4FE0048604FF41F008860FFF750FFD0
:1007E0004FF000600449086010BD00000010024096
:1007F0000000FFF8FFFFF6FE08ED00E01CB5FFF774
:10080000E3FEFFF74BFEFFF78BFD002001210346BF
:100810002022CDE9001004A1074800F0A5FB00F05C
:100820001FFB00BFFEE700004B6579626F617264D9
:100830005363616E00000000390C000870B5044677
:100840000D461646012D02D18807848609E0022D47
:1008500002D16807048704E0032D02D14FF08040E5
:100860008487304600F0E2FA70BD00002DE9F041C7
:1008700005460E461C4807681C480068001D00F02D
:10088000C7F950B91948006890F82C100120884029
:1008900017490968814316480160681C38B936B1A8
:1008A00012480168091D134800F084FA1AE07C1907
:1008B0000E4800684460BC4207D20C480168091D1C
:1008C0000D48006800F05CFA0CE008480168091D5A
:1008D0000A48006800F054FA09480068844201D2CE
:1008E00007480460BDE8F0811C00002008000020DB
:1008F0002000002000010020100000200C0000203B
:100900003800002010B5044600F060FA2348006863
:10091000401C224908602248006840B92048046011
:100920000846006801280DD100F0CEF80AE01D4805
:10093000006838B91A480068C06AE16A884201D87C
:100940001748046018480068401C1749086094F86C
:100950002C10012088401549096808431349086094
:10096000E16A01EB8101124A02EB8100211D00F0D6
:1009700021FA00F03DFA0B48006868B108480068A9
:10098000C06AE16A884207D24FF080500949086086
:10099000BFF34F8FBFF36F8F10BD00001800002012
:1009A0000800002024000020340000202000002047
:1009B0004C00002004ED00E010B516E000F006FA4F
:1009C0000C48C068C468201D00F022F90A4800687D
:1009D000401E0949086009480068401E0749086030
:1009E00000F006FA204600F00BF8044800680028E2
:1009F000E4D110BDEC0000201800002014000020FD
:100A000010B50446206B00F003FA204600F000FA0F
:100A100010BD000000BFFFF7CFFF064800680128A7
:100A2000F9D94FF0805004490860BFF34F8FBFF3EE
:100A30006F8FF0E74C00002004ED00E02DE9FF5F30
:100A400080460E469146DDE90E7A109CA9F1010020
:100A5000216B01EB800B2BF0070B86B1002507E023
:100A6000715D04F134004155705D00B902E06D1C08
:100A7000102DF5D300BF00214320015502E00020D6
:100A800084F83400052F00D30427E762201D00F00E
:100A900074F904F1180000F070F92461C7F1050041
:100AA000A06164620020606484F8480041465846B2
:100AB000039A00F09BF82060BAF1000F01D0CAF849
:100AC0000040BDE8FF9F000010B5002407E004EBE4
:100AD00084010F4A02EB810000F042F9641C052CEE
:100AE000F5D30C4800F03CF90B4800F039F90B48FD
:100AF00000F036F90A4800F033F90A4800F030F9FE
:100B000004480949086004480849086010BD00000D
:100B10004C000020B0000020C4000020D8000020BD
:100B2000EC000020000100200C000020100000203C
:100B30000A490968096809B9012100E0002121B1C9
:100B40004FF0FF31064A116006E004490968C968A0
:100B5000C868034A41681160704700000C0000201B
:100B60003800002000BFBF2080F31188BFF34F8FF3
:100B7000BFF36F8F00BF00BFFEE7000070B50446F3
:100B8000002504F0070020B104F00700C0F10800C0
:100B9000044400F097F91248006820B9114820F089
:100BA00007000F49086010480068204443F6F871B8
:100BB000884210D20C48006820440B4909688842DA
:100BC00009D90748006808490968451806480068B7
:100BD00020440549086000F085FA284670BD0000F1
:100BE000480000201C01002044000020001F4FF09E
:100BF00080730360001F21F001030360001F034B9B
:100C0000036014380260203870470000650B00084C
:100C100001460A69D1E901309860D1E901035860C1
:100C20005068884201D188685060002008611068CF
:100C3000401E1060106870478DE04FF08040048FB8
:100C4000858E0A270A264448006840F08000424901
:100C5000086041480838006800F0400060B140F684
:100C6000C410C01BA04207DBE01984B21422022189
:100C70002046FFF7E3FD6EE037480838006800F0D3
:100C8000200058B107F5FA70A04207DCE01B84B2DF
:100C9000142202212046FFF7D1FD5CE02E480838DF
:100CA000006800F4807060B140F6C410801BA84258
:100CB00007DBA81985B2142201212846FFF7BEFDE3
:100CC00049E025480838006800F4007058B106F281
:100CD000DC50A84207DCA81B85B21422012128465B
:100CE000FFF7ACFD37E01C48006840F400001A49EB
:100CF00008600846006840F48050086016480838CC
:100D0000006800F0400068B11448007850B9012034
:100D1000124908704FF4FA72032140F6FC00FFF705
:100D20008DFD11E00C480838006800F0400058B113
:100D30000A48007840B10020084908704FF4FA7260
:100D400003219000FFF77AFD0348006840F08050CF
:100D50000149086000BF70E7100C0140000000204E
:100D600000F1080141604FF0FF31816000F108019E
:100D7000C16001610021016070470021016170477D
:100D800010B502460B685C1C0CB9106907E002F153
:100D9000080000E04068446824689C42FAD944682E
:100DA0004C604C68A160886041600A611468641CF2
:100DB000146010BD42684A6093688B609368596004
:100DC0009160086103685B1C0360704700BFBF202F
:100DD00080F31188BFF34F8FBFF36F8F00BF0348BD
:100DE0000068401C014908607047000004000020B2
:100DF00006480068401E054908600846006820B99A
:100E0000002080F3118800BF00BF7047040000205D
:100E10007047000000204FF0E0210861886102481F
:100E200048610720086170473F19010070B504460A
:100E3000002544B100F046F800212046FFF716FDDA
:100E400000F050F905463DB94FF080500349086065
:100E5000BFF34F8FBFF36F8F70BD000004ED00E054
:100E60001CB5114800210B462022CDE900100FA12E
:100E7000104800F079F80446012C14D100BFBF20BF
:100E800080F31188BFF34F8FBFF36F8F00BF4FF018
:100E9000FF3009490860012008490860002008491E
:100EA000086000F047F81CBD3C00002049444C4558
:100EB00000000000150A000838000020240000206F
:100EC0001C00002002480068401C0149086070476F
:100ED000400000201248006818B101201149086044
:100EE0001DE000200F4908600F480068B0FA80F04C
:100EF000C0F11F0101EB81020C4B03EB8200426841
:100F00005268426000F108024368934202D142688D
:100F1000526842604268D268054B1A6000BF704751
:100F2000400000202C000020200000204C00002069
:100F30000800002010B50A48006840F47F00084906
:100F400008600846006840F07F400860FFF762FFD5
:100F5000002004490860FFF74BF9002010BD000095
:100F600020ED00E0040000202DE9FF4F85B0804611
:100F700089461746DDE912ABB800FFF7FFFD0646CC
:100F800056B14C20FFF7FAFD04460CB1266304E08D
:100F90003046FFF73DFF00E000247CB10020CDE9A2
:100FA00000ABCDE902403A4649464046089BFFF770
:100FB00045FD2046FFF7A6FC012501E04FF0FF3577
:100FC000284609B0BDE8F08F2DE9F04100273A48E6
:100FD0000068002867D139480068451C374805601B
:100FE0008DB93748D0F80080364800683449086029
:100FF0003448C0F8008034480068401C324908601A
:10100000FFF796FD00BF3148006885423BD300BF23
:101010002B480068006808B9012000E0002020B1DA
:101020004FF0FF30294908602CE025480068C0686F
:10103000C4686668B54202D22448066022E0201DDA
:10104000FFF7E6FDA06A18B104F11800FFF7E0FD14
:1010500094F82C10012088401D49096808431C4958
:101060000860E16A01EB81011A4A02EB8100211D4F
:10107000FFF7A0FE1849E06A0968C96A8842C7D329
:101080000127C5E700BF14480068C06A00EB800074
:10109000104951F82000012800D901270F480068A5
:1010A00000B1012704E00E480068401C0C490860AC
:1010B0003846BDE8F0810000400000201C00002000
:1010C0000C0000201000002030000020380000201C
:1010D000200000204C000020080000202C000020F0
:1010E0002800002070B500240026FFF76FFE2E4870
:1010F0000068401E2C4908600846006800284FD14F
:101100002A48006800284BD024E02948C068C468F9
:1011100004F11800FFF77CFD201DFFF779FD94F81E
:101120002C100120884023490968084321490860A0
:10113000E16A01EB8101204A02EB8100211DFFF7EA
:1011400039FE1E49E06A0968C96A884202D3012053
:101150001B4908601648006808B9012000E000201B
:101160000028D2D00CB1FFF7E3FC1648056865B142
:1011700000BFFFF729FF10B10120114908606D1E63
:10118000002DF6D100200F4908600D48006838B1E5
:10119000012630070C490860BFF34F8FBFF36F8FF4
:1011A000FFF726FE304670BD4000002018000020EA
:1011B000D8000020200000204C0000200800002063
:1011C0002C0000202800002004ED00E0EC110008B5
:1011D000000000204C0000006C01000838120008DC
:1011E0004C0000202C47000088010008000000008F
:1011F000AAAAAAAA00000000000000000000000047
:1012000000000000000000000000000000000000DE
:1012100000000000000000000000000000000000CE
:1012200000000000000000000000000000000000BE
:081230000000000000000000B6
:040000050800026588
:00000001FF
